:040000000CEF00F011
:10000800FACF01F0FBCF02F0E9CF03F024ED01F0C5
:100018009AEF02F08EEC02F058EC02F0949C829C6D
:10002800CF0E156E7F0E166ECF0E116E7F0E126EEE
:10003800080E1D6E000E1C6E090E176EA5EC02F060
:1000480045EC02F0B4EC02F0ADEC02F000D082B264
:1000580034D0020E1918D8B40DD0C0EC02F0CF0E6F
:10006800116E7F0E126E800E186E090E176E020E3C
:10007800196E00D0100E186403D002EC02F008D0FC
:1000880018509AEC01F00009D8A404D002EC02F050
:10009800186E00D0100E186407D0CF0E116E7F0EA8
:1000A800126E090E176E09D074EC02F00FC011F031
:1000B80010C012F018C017F000D082A2C8D7030EE3
:1000C8001918D8B415D0030E196E090E1E6E000E3D
:1000D8001A6ECF0E116E7F0E126E81EC02F00FC0F9
:1000E80013F010C014F067EC02F0BBEC02F000D083
:1000F8001AC01BF095D013C0F6FF14C0F7FF090013
:10010800800EF55E0900800EF51A800EF55AD8B0FB
:1001180002D0010E83D013C0F6FF14C0F7FF090008
:10012800800EF5180900F510D8A469D0020E76D013
:1001380066D08DD774EC02F00FC011F010C012F029
:1001480013C0F6FF14C0F7FF0800F550C40F1E6E69
:1001580013C0F6FF14C0F7FF0900800EF55E090012
:10016800800EF51A800EF55AD8A0D3D713C0F6FF23
:1001780014C0F7FF0900800EF5180900F510D8B46F
:10018800D5D73DD064D7CF0E116E7F0E126E090EF3
:100198001E6E13C0F6FF14C0F7FF0900800EF55E4F
:1001A8000900800EF51A800EF55AD8A0B2D71CD0D7
:1001B80026D04DD7CF0E116E7F0E126E81EC02F055
:1001C8000FC013F010C014F0090E1E6E13C0F6FF16
:1001D80014C0F7FF0900800EF55E0900800EF51ABD
:1001E800800EF55AD8A095D713C0F6FF14C0F7FFB4
:1001F8000900800EF5180900F510D8B497D713C078
:10020800F6FF14C0F7FF0900810EF55E0900800EA5
:10021800F51A800EF55AD8A01AD7030E1A6E17D7FA
:100228001B50000AD8B467D7010AD8B483D7030A89
:10023800D8B4A9D7010AD8B4BDD709D70CEF00F0B4
:100248000600EACF04F0E1CF05F0E2CF06F0D9CFFF
:1002580007F0DACF08F0F3CF09F0F4CF0AF0F6CFC1
:100268000BF0F7CF0CF0F8CF0DF0F5CF0EF0A1A002
:1002780034D0A1901DC08CFF15C0F6FF16C0F7FF43
:100288000800F5CF1DF0CD90000ECF6E000ECE6E9B
:100298001C2A154A162A0F0E1C641DD0000E1C6E4F
:1002A80011C015F012C016F01750010D790EF32485
:1002B800F66E750EF420F76E0800F5CFBCFF1750E8
:1002C800010D8A0EF324F66E750EF420F76E080001
:1002D800F5CFBBFF00D0CD8000D09EA20AD09E9261
:1002E800020E1326000E14221EC017F0000ECC6E4C
:1002F80000D00EC0F5FF0DC0F8FF0CC0F7FF0BC013
:10030800F6FF0AC0F4FF09C0F3FF08C0DAFF07C010
:10031800D9FF06C0E2FF05C0E1FF04C0EAFF03C041
:10032800E9FF02C0FBFF01C0FAFF11000F6E33D0D6
:1003380081A02FD02CD081A22CD029D081A429D063
:1003480026D081A626D023D081A823D020D081AA68
:1003580020D01DD081AC1DD01AD081AE1AD017D0B4
:1003680080A017D014D080A214D011D080A411D0AE
:100378000ED080A60ED00BD080A80BD008D080AAB3
:1003880008D005D084A005D002D084A202D0010EE6
:1003980034D0000E32D00F50000AD8B4C9D7010AA1
:1003A800D8B4C9D7030AD8B4C9D7010AD8B4C9D7A9
:1003B800070AD8B4C9D7010AD8B4C9D7030AD8B428
:1003C800C9D7010AD8B4C9D70F0AD8B4C9D7010AFE
:1003D800D8B4C9D7030AD8B4C9D7010AD8B4C9D779
:1003E800070AD8B4C9D7010AD8B4C9D7030AD8B4F8
:1003F800C9D7010AD8B4C9D7CCD7120081A002D076
:10040800000E3ED081A202D0010E3AD081A402D0C3
:10041800020E36D081A602D0030E32D081A802D0B7
:10042800040E2ED081AA02D0050E2AD081AC02D0AB
:10043800060E26D081AE02D0070E22D080A002D0B0
:10044800080E1ED080A202D0090E1AD080A402D0B5
:100458000A0E16D080A602D00B0E12D080A802D0A9
:100468000C0E0ED080AA02D00D0E0AD084A002D0A5
:100478000E0E06D084A202D00F0E02D0800E00D03D
:100488001200BA50F00B0A09BA6E820EF66E750E9B
:10049800F76E0800F5CFBCFF930EF66E750EF76E7B
:1004A8000800F5CFBBFF12003F0E926E9368C18023
:1004B800C182C184C186030E966E000E956E94802B
:1004C800948294841200CA86CA88CA8ACA8CCA507E
:1004D800FC0B0209CA6E000ECC6EF40ECB6E120035
:1004E80082A405D0EF0E0F6E7F0E04D005D0DF0E6C
:1004F8000F6E7F0E106E00D0120082A005D09B0EEA
:100508000F6E750E04D005D0630E0F6E7C0E106E44
:1005180000D01200D39ED388D38AD38CD350FC0B3F
:100528000209D36E00D0D3A4FED7120000EE11F05A
:100538000E0EEE6AE806FDE1000EF86E00010EEF01
:1005480000F0CD92CF0ECD16CD8ECD96B19CB19642
:100558001200CD90000ECF6E000ECE6ECD80120030
:10056800A080A190A280D08EF28CF28E12009F9271
:100578009E92CA849D8212009D929E92CA941200F5
:1075780000010101010101010100000000000000FB
:107588000000A3886E56402A1603F1E0D0C1B2A5C8
:10759800988C8180008000800080008000800080BE
:1075A80000800080008000800080008000800080D3
:1075B80000800080008000800080008000800080C3
:1075C80000800080008000800080008000800080B3
:1075D80000800080008000800080008000800080A3
:1075E8000080008000800080008000800080008093
:1075F80000800080004300430043004300430043F1
:10760800004300430043004300430043004300435A
:107618000043004300800045004500450045004503
:10762800004500450045004500450045004500452A
:10763800004500450045004500450045004500451A
:10764800004500450045004500450045004500450A
:1076580000450045004500800045004500450045BF
:1076680000450045004500450045004500450045EA
:107678000045004500450045008000470047004799
:1076880000470047004700470047004700470047BA
:107698000047004700470047004700800045004575
:1076A80000450045004500450045004500450045AA
:1076B800004500450045004500450045008000475D
:1076C800004700470047004700470047004700477A
:1076D8000047004700470047004700470047008031
:1076E8000048004800480048004800480048004852
:1076F8000048004800480048004800480048004842
:10770800008000430043004300430043004300431C
:107718000043004300430043004300430043004349
:107728000043004300430043004300430043004339
:107738000043004300430043004300430043004329
:107748000043004300430043004300430043004319
:107758000043004300430043004300430043004309
:1077680000430080004300430043004300430043BC
:1077780000430043004300430043004300430043E9
:10778800004300430080004300430043004300439C
:1077980000430043004300430043004300430043C9
:1077A8000043004300430080004500450045004574
:1077B8000045004500450045004500450045004599
:1077C800004500450045004500800045004500454E
:1077D8000045004500450045004500450045004579
:1077E800004500450045004500450080004500452E
:1077F8000045004500450045004500450045004559
:10780800004500450045004500450045008000470B
:107818000047004700470047004700470047004728
:1078280000470047004700470047004700470080DF
:107838000045004500450045004500450045004518
:107848000045004500450045004500450045004508
:1078580000800047004700470047004700470047AF
:1078680000470047004700470047004700470047D8
:107878000047008000480048004800480048004889
:1078880000480048004800480048004800480048B0
:107898000048004800800043004300430043004381
:1078A80000430043004300430043004300430043B8
:1078B80000430043004300430043004300430043A8
:1078C8000043004300430043004300430043004398
:1078D8000043004300430043004300430043004388
:1078E8000043004300430043004300430043004378
:1078F8000043004300430043004300430043004368
:107908000043004300430043004300430043004357
:10791800004300430043008000430043004300430A
:107928000043004300430043004300430043004337
:1079380000430043004300430080004100410041F0
:107948000041004100410041004100410041004127
:1079580000410041004100410041008000400040DA
:10796800004000400040004000400040004000400F
:1079780000400040004000400040004000800041BE
:1079880000410041004100410041004100410041E7
:107998000041004100410041004100410041008098
:1079A80000450045004500450045004500450045A7
:1079B8000045004500450045004500450045004597
:1079C800008000430043004300430043004300435A
:1079D8000043004300430043004300430043004387
:1079E8000043008000410041004100410041004146
:1079F8000041004100410041004100410041004177
:107A0800004100410080004000400040004000402C
:107A1800004000400040004000400040004000405E
:107A28000040004000400080004300430043004302
:107A38000043004300430043004300430043004326
:107A48000043004300430043004300430043004316
:107A58000043004300430043004300430043004306
:107A680000430043004300430043004300430043F6
:107A780000430043004300430043004300430043E6
:107A8800004300430043004300800048004800488A
:107A9800004800480048004800480048004800489E
:107AA800004800480048004800480080004A004A52
:107AB800004A004A004A004A004A004A004A004A6E
:107AC800004A004A004A004A004A004A0080004C26
:107AD800004C004C004C004C004C004C004C004C3E
:107AE800004C004C004C004C004C004C004C004C2E
:107AF800004C004C004C004C004C004C004C004C1E
:107B0800004C004C004C004C004C004C004C0080D9
:107B1800004C004C004C004C004C004C004C004CFD
:107B2800004C004C004C004C004C004C004C004CED
:107B38000080004A004A004A004A004A004A004AB7
:107B4800004A004A004A004A004A004A004A004ADD
:107B5800004A004A004A004A004A004A004A004ACD
:107B6800004A004A004A004A004A004A004A004ABD
:107B7800004A0080004A004A004A004A004A004A77
:107B8800004A004A004A004A004A004A004A004A9D
:107B9800004A004A00800048004800480048004861
:107BA800004800480048004800480048004800488D
:107BB800004800480048004800480048004800487D
:107BC800004800480048004800480048004800486D
:107BD800004800480048004800480048004800485D
:107BE800004800480048004800480048004800484D
:107BF8000048004800480080008000800080008025
:107C0800008000800080008000800080008000806C
:107C1800008000800080008000800080008000805C
:107C2800008000800080008000800080008000804C
:107C3800008000800080008000800080008000803C
:107C4800008000800080008000800080008000802C
:107C5800008000800080008000FF0080008000809D
:107C6800008000800080008000800080008000800C
:107C780000800080003C003C003C003C003C003C94
:107C8800003C003C003C003C003C003C0080003CC8
:107C9800003C003C003C003E003E003E003E003EF2
:107CA800003E003E003E003E003E003E003E003EDC
:107CB800003E003E003E003C003C003C003C003CD6
:107CC800003C003C003C003C003C003C003C003CCC
:107CD800003C003C003C00410041004100410041A3
:107CE8000041004100410041004100410041004184
:107CF8000041004100410040004000400040004079
:107D0800004000400040004000400040004000406B
:107D1800004000400040004000400040004000405B
:107D2800004000400040004000400040004000404B
:107D38000040004000400080003C003C003C003C0B
:107D4800003C003C003C003C003C003C003C003C4B
:107D58000080003C003C003C003C0080003E003EAF
:107D6800003E003E003E003E003E003E003E003E1B
:107D7800003E003E003E003E003E003E0080003CCB
:107D8800003C003C003C003C003C003C003C003C0B
:107D9800003C003C003C003C003C003C003C0080B7
:107DA80000430043004300430043004300430043B3
:107DB80000430043004300430043004300430043A3
:107DC8000080004100410041004100410041004164
:107DD8000041004100410041004100410041004193
:107DE8000041004100410041004100410041004183
:107DF8000041004100410041004100410041004173
:107E080000410080003C003C003C003C003C003C41
:107E1800003C003C003C003C003C003C0080003C36
:107E2800003C003C003C00800048004800480048F6
:107E380000480048004800480048004800480048FA
:107E480000480048004800480080004500450045BB
:107E580000450045004500450045004500450045F2
:107E680000450045004500450045008000410041AF
:107E780000410041004100410041004100410041F2
:107E880000410041004100410041004100800040A4
:107E980000400040004000400040004000400040DA
:107EA800004000400040004000400040004000808A
:107EB800003E003E003E003E003E003E003E003ECA
:107EC800003E003E003E003E003E003E003E003EBA
:107ED8000080004600460046004600460046004630
:107EE8000046004600460046004600800046004620
:107EF8000046004600800045004500450045004515
:107F08000045004500450045004500450045004541
:107F18000045004500450080004100410041004106
:107F28000041004100410041004100410041004141
:107F380000410041004100410080004300430043EC
:107F48000043004300430043004300430043004311
:107F580000430043004300430043008000410041C8
:107F68000041004100410041004100410041004101
:107F780000410041004100410041004100410041F1
:107F880000410041004100410041004100410041E1
:107F98000041004100410041004100410080008053
:107FA80000800080008000800080008000800080C9
:107FB80000800080008000800080008000800080B9
:107FC8000080008000FF0008080808080808080862
:107FD80008080808080808080B0D0F0F0F0D0B08F4
:107FE800040200000002040F0F0F0F0F0F0F0F0005
:087FF800000000000000000081
:020000040020DA
:08000000FFFFFFFFFFFFFFFF00
:020000040030CA
:0E00000001091F1EFF0181FF0FC00FE00F401E
:00000001FF
